:02000000B32823
:1000060083169C1C08280000032828089B00290842
:100016009A009C131C150B08D0008B1355309D00BD
:10002600AA309D009C14D01B1A288B131B288B17F3
:040036001C11080091
:10003A008312051285122108D000D00D5010D00D60
:10004A005010D00D5010D00D501050088504A80142
:08005A002108A90003200800A1
:0C006200831224088A0023088200080092
:10006E008312270883169B009C131C141A08D000B9
:02007E00080078
:100080008312851083168510043083128506823012
:10009000DC00DD30DD00DD0B4B28DC0B4B280000E5
:1000A0000000043085060330DB000830DC007730C8
:1000B000DD00DD0B5928DC0B5928DB0B5928831692
:0800C000851483128514080069
:1000C8008316810195140730831299000B3083162B
:1000D80085008312851485150511A701372050085E
:1000E800A100831285155008033C03187C28A10140
:1000F8002108A7001D204020A6010A302602031867
:100108009D2805158230DC00DD30DD00DD0B8A28F6
:10011800DC0B8A280000000005118230DC00DD308D
:10012800DD00DD0B9528DC0B952800000000A60AF1
:040138008128080012
:10013C008312051AA528851AA5280515A6280511C8
:02014C000800A9
:10014E0031208A110A128000840AA30A0319A40A14
:08015E00D003031DA7280800CF
:100166008312A001A101A20164209E203F298312CF
:10017600851DC028851CC028C228A20AC328A20142
:100186000230DB000430DC00BA30DD00DD0BC928AC
:10019600DC0BC928DB0BC928000022080F3C03181A
:1001A600F0280230A000A501A201043085068230A5
:1001B600DC00DD30DD00DD0BDE28DC0BDE28000098
:1001C6000000043085068230DC00DD30DD00DD0B0A
:1001D600EA28DC0BEA280000000048292508031D50
:1001E60005298312851D0529851C05290130A500D1
:1001F6003430DC00F130DD00DD0BFF28DC0BFF289E
:10020600000000002508031922298312851D0E29E6
:10021600851C0E292229A501A10A03302105D0003B
:100226005008A1005008A7001D203430DC00F13032
:10023600DD00DD0B1C29DC0B1C29000000008312ED
:10024600851D3329851C3329A20A8230DC00DD3066
:10025600DD00DD0B2C29DC0B2C29000000003429E5
:10026600A20122081E3C03183D29A0010130A50069
:100276004020A201482948292008003A0319BA2833
:0E0286002008023A0319F1283E29B828492918
:02400E009431EB
:00000001FF
