:0200000087284F
:10000600831285108316851004308312850682308C
:10001600DC00DD30DD00DD0B0E28DC0B0E280000D9
:100026000000043085060330DB000830DC00773042
:10003600DD00DD0B1C28DC0B1C28DB0B1C288316C3
:080046008514831285140800E3
:0C004E00831224088A00230882000800A6
:10005A008312051285122008D000D00D5010D00D41
:10006A005010D00D5010D00D5010500885040800C3
:10007A008312051A4428851A4428051545280511AE
:02008A0008006C
:10008C0027208A110A128000840AA30A0319A40AE1
:08009C00D003031D46280800F3
:1000A4008316810195140730831299000B3083164F
:1000B4008500831285148515051185152008033CD8
:1000C40003186528A0012008A7002D200320A601FD
:1000D4000A3026020318862805158230DC00DD303C
:1000E400DD00DD0B7328DC0B732800000000051114
:1000F4008230DC00DD30DD00DD0B7E28DC0B7E2869
:0A01040000000000A60A6A280800A7
:10010E008312A001A101A20152203D200F29851DBD
:10011E009328851C93289528A20A9628A2010230BE
:10012E00DB000430DC00BA30DD00DD0B9C28DC0B7C
:10013E009C28DB0B9C28000022080F3C0318C328C8
:10014E000230A100A501A201043085068230DC0038
:10015E00DD30DD00DD0BB128DC0BB1280000000026
:10016E00043085068230DC00DD30DD00DD0BBD287D
:10017E00DC0BBD280000000018292508031DD72818
:10018E00851DD728851CD7280130A5003430DC000A
:10019E00F130DD00DD0BD128DC0BD1280000000092
:1001AE0025080319F328851DDF28851CDF28F32871
:1001BE00A501A00A03302005D0005008A000500869
:1001CE00A7002D203430DC00F130DD00DD0BED28F2
:1001DE00DC0BED2800000000851D0329851C03297A
:1001EE00A20A8230DC00DD30DD00DD0BFC28DC0BEA
:1001FE00FC28000000000429A20122081E3C03185E
:10020E000D29A1010130A5000320A20118291829EA
:10021E002108003A03198E282108023A0319C4282E
:06022E000E298C2819299D
:02400E009431EB
:00000001FF
