:02000000B12825
:1000060083169C1C08280000032828089B00290842
:100016009A009C131C150B08D0008B1355309D00BD
:10002600AA309D009C14D01B1A288B131B288B17F3
:040036001C11080091
:10003A008312051285122008D000D00D5010D00D61
:10004A005010D00D5010D00D501050088504A80142
:08005A002008A90003200800A2
:0C006200831225088A0024088200080090
:10006E008312270883169B009C131C141A08D000B9
:02007E00080078
:100080008312851083168510043083128506413053
:10009000DC00EE30DD00DD0B4B28DC0B4B280000D4
:1000A000043085060230DB000430DC00BA30DD00AD
:1000B000DD0B5828DC0B5828DB0B58280000831672
:0800C000851483128514080069
:1000C8008316810195140730831299000B3083162B
:1000D80085008312851485150511A701372050085E
:1000E800A000831285155008033C03187C28A00142
:1000F8002008A7001D204020A6010A302602031868
:100108009B2805154130DC00EE30DD00DD0B8A2828
:10011800DC0B8A28000005114130DC00EE30DD00E0
:10012800DD0B9428DC0B94280000A60A812808001F
:100138008312051AA328851AA3280515A4280511D2
:020148000800AD
:10014A0031208A110A128000840AA40A0319A50A16
:08015A00D003031DA5280800D5
:100162008312A001A101A20164209C2035298312DF
:10017200851DBE28851CBE28C028A10AC128A10150
:100182008230DC00DD30DD00DD0BC528DC0BC5284C
:100192000000000021080F3C0318E9280230A200E9
:1001A200A301A101043085064130DC00EE30DD0000
:1001B200DD0BD928DC0BD92800000430850641303C
:1001C200DC00EE30DD00DD0BE428DC0BE42800006F
:1001D2003E292308031DFD288312851DFD28851C49
:1001E200FD280130A3001A30DC00F830DD00DD0B01
:1001F200F828DC0BF82800002308031919298312B8
:10020200851D0629851C06291929A301A00A033088
:100212002005D0005008A0005008A7001D201A3069
:10022200DC00F830DD00DD0B1429DC0B14290000A2
:100232008312851D2929851C2929A10A4130DC0048
:10024200EE30DD00DD0B2329DC0B232900002A29F7
:10025200A10121081E3C03183329A2010130A30089
:100262004020A1013E293E292208003A0319B8285C
:0E0272002208023A0319EA283429B6283F2947
:02400E009431EB
:00000001FF
