:02000000B8281E
:1000060083169C1C08280000032828089B00290842
:100016009A009C131C150B08D0008B1355309D00BD
:10002600AA309D009C14D01B1A288B131B288B17F3
:040036001C11080091
:10003A008312051285122008D000D00D5010D00D61
:10004A005010D00D5010D00D501050088504A80142
:08005A002008A90003200800A2
:0C006200831224088A0023088200080092
:10006E008312270883169B009C131C141A08D000B9
:02007E00080078
:100080008312851083168510043083128506413053
:10009000DC00EE30DD00DD0B4B28DC0B4B280000D4
:1000A000043085060230DB000430DC00BA30DD00AD
:1000B000DD0B5828DC0B5828DB0B58280000831672
:0800C000851483128514080069
:1000C80083168101951407308312990083169F01C6
:1000D8000B3085008312851485150511A70137207B
:1000E8005008A000831285155008033C03187D288A
:1000F800A0012008A7001D2040200A308316960082
:100108008B158B13A601053026020318A22883122B
:1001180005154130DC00EE30DD00DD0B9128DC0BED
:100128009128000005114130DC00EE30DD00DD0BC8
:0E0138009B28DC0B9B280000A60A87280800E5
:100146008312051AAA28851AAA280515AB280511AF
:0201560008009F
:1001580031208A110A128000840AA30A0319A40A0A
:08016800D003031DAC280800C0
:100170008312A001A101A2016420A3203E298312C1
:10018000851DC528851CC528C728A20ACA28A20122
:1001900063000B108230DC00DD30DD00DD0BCE288B
:1001A000DC0BCE280000000022080F3C0318F228C8
:1001B0000230A100A501A201043085064130DC0017
:1001C000EE30DD00DD0BE228DC0BE228000004301D
:1001D00085064130DC00EE30DD00DD0BED28DC0B68
:1001E000ED28000047292508031D06298312851DD7
:1001F0000629851C06290130A5001A30DC00F830DC
:10020000DD00DD0B0129DC0B0129000025080319A5
:1002100022298312851D0F29851C0F292229A5015A
:10022000A00A03302005D0005008A0005008A70005
:100230001D201A30DC00F830DD00DD0B1D29DC0B41
:100240001D2900008312851D3229851C3229A20A2E
:100250004130DC00EE30DD00DD0B2C29DC0B2C29DD
:1002600000003329A20122081E3C03183C29A101E9
:100270000130A5004020A201472947292108003A62
:100280000319BF282108023A0319F3283D29BD2884
:020290004829FB
:02400E009431EB
:00000001FF
