:02000000AE2828
:1000060083169C1C08280000032828089B00290842
:100016009A009C131C150B08D0008B1355309D00BD
:10002600AA309D009C14D01B1A288B131B288B17F3
:040036001C11080091
:10003A008312051285122008D000D00D5010D00D61
:10004A005010D00D5010D00D501050088504A80142
:08005A002008A90003200800A2
:0C006200831224088A0023088200080092
:10006E008312270883169B009C131C141A08D000B9
:02007E00080078
:100080008312851083168510043083128506413053
:10009000DC00EE30DD00DD0B4B28DC0B4B280000D4
:1000A000043085060230DB000430DC00BA30DD00AD
:1000B000DD0B5828DC0B5828DB0B58280000831672
:0400C000851408009B
:1000C4008316810195140730831299000B3083162F
:1000D40085008312851485150511A7013720500862
:1000E400A0005008033C03187828A0012008A700AA
:1000F4001D204020A6010A302602031898288312E6
:1001040005154130DC00EE30DD00DD0B8728DC0B0B
:100114008728000005114130DC00EE30DD00DD0BE6
:0E0124009128DC0B91280000A60A7D28080017
:100132008312051AA028851AA0280515A1280511E1
:020142000800B3
:1001440031208A110A128000840AA30A0319A40A1E
:08015400D003031DA2280800DE
:10015C008312A001A101A201622099202208003A79
:10016C00031DE928851DBD28851CBD28BF28A10AB3
:10017C00C028A1018230DC00DD30DD00DD0BC4289D
:10018C00DC0BC4280000000021080F3C0318E928F0
:10019C000230A200A501A001A10104308506413066
:1001AC00DC00EE30DD00DD0BD928DC0BD92800009B
:1001BC00043085064130DC00EE30DD00DD0BE42838
:1001CC00DC0BE42800002208023A031D3429250820
:1001DC00031DFF28851DFF28851CFF280130A50065
:1001EC001A30DC00F830DD00DD0BFA28DC0BFA28C5
:1001FC000000250803191A29851D0729851C0729C4
:10020C001A29A501A00A03302005D0005008A0002F
:10021C005008A7001D201A30DC00F830DD00DD0B83
:10022C001529DC0B152900008312851D2A29851C34
:10023C002A29A10A4130DC00EE30DD00DD0B242937
:10024C00DC0B242900002B29A10121081E3C0318DA
:10025C003429A2010130A5004020A101B328352981
:02400E009431EB
:00000001FF
