:02000000B7281F
:1000060083169C1C08280000032828089B00290842
:100016009A009C131C150B08D0008B1355309D00BD
:10002600AA309D009C14D01B1A288B131B288B17F3
:040036001C11080091
:10003A008312051285122208D000D00D5010D00D5F
:10004A005010D00D5010D00D501050088504A80142
:08005A002208A90003200800A0
:0C006200831224088A0023088200080092
:10006E008312270883169B009C131C141A08D000B9
:02007E00080078
:100080008312851083168510043083128506413053
:10009000DC00EE30DD00DD0B4B28DC0B4B280000D4
:1000A000043085060230DB000430DC00BA30DD00AD
:1000B000DD0B5828DC0B5828DB0B58280000831672
:0800C000851483128514080069
:1000C8008316810195140730831299000B3083162B
:1000D80085008312851485150511A701372050085E
:1000E800A200831285155008033C03187C28A2013E
:1000F8002208A7001D2040200A30831696008B1581
:100108008B13A601053026020318A12883120515B2
:100118004130DC00EE30DD00DD0B9028DC0B902850
:10012800000005114130DC00EE30DD00DD0B9A28BF
:0C013800DC0B9A280000A60A86280800AC
:100144008312051AA928851AA9280515AA280511B4
:020154000800A1
:1001560031208A110A128000840AA30A0319A40A0C
:08016600D003031DAB280800C3
:10016E008312A001A101A2016420A2203D298312C5
:10017E00851DC428851CC428C628A10AC928A1012A
:10018E0063000B108230DC00DD30DD00DD0BCD288E
:10019E00DC0BCD280000000021080F3C0318F128CD
:1001AE000230A000A501A101043085064130DC001B
:1001BE00EE30DD00DD0BE128DC0BE1280000043021
:1001CE0085064130DC00EE30DD00DD0BEC28DC0B6B
:1001DE00EC28000046292508031D05298312851DDC
:1001EE000529851C05290130A5001A30DC00F830E0
:1001FE00DD00DD0B0029DC0B0029000025080319AA
:10020E0021298312851D0E29851C0E292129A50160
:10021E00A20A03302205D0005008A2005008A70001
:10022E001D201A30DC00F830DD00DD0B1C29DC0B44
:10023E001C2900008312851D3129851C3129A10A34
:10024E004130DC00EE30DD00DD0B2B29DC0B2B29E1
:10025E0000003229A10121081E3C03183B29A001F0
:10026E000130A5004020A101462946292008003A68
:10027E000319BE282008023A0319F2283C29BC288B
:02028E004729FE
:02400E009431EB
:00000001FF
